:020000007D2B56
:1006FA008301AC2B831205142408A101A107230846
:10070A00A001A0079223831205102408A101A107C2
:10071A002308A001A00792230800A32BF930831213
:10072A00A2000000A20B962B9A2B00000130831224
:10073A00A0020030031CA103A102A32B83122108EB
:10074A002004031DA92BAA2B932BAB2B080083167D
:10075A000510AF2B8312A501A6012608803ADF00F7
:10076A0081305F02031DBB2BF5302502031CBE2B13
:10077A00BF2BC12BDE2BDE2B83122608A401A40774
:10078A002508A301A3077F2364308312A507031852
:10079A00A60A0030A6072608803ADF0081305F02E9
:1007AA00031DD92BF5302502031CDC2BDD2BC12BB5
:1007BA00DE2BF4308312A7000130A800A81FE62B15
:1007CA00E72BE92BAF2BAF2B2808A401A407270896
:1007DA00A301A3077F239C308312A7070318A80A43
:1007EA00FF30A807A81FFA2BFB2BE92BAF2BAF2B47
:0407FA00AF2B0028F9
:00000001FF
